{
  "_format": "hh-sol-artifact-1",
  "contractName": "VolumeBot",
  "sourceName": "contracts/VolumeBot.sol",
  "abi": [
    {
      "anonymous": false,
      "inputs": [
        {
          "indexed": true,
          "internalType": "uint256",
          "name": "wethAmount",
          "type": "uint256"
        },
        {
          "indexed": true,
          "internalType": "uint256",
          "name": "tokenAmount",
          "type": "uint256"
        }
      ],
      "name": "ActualBuy",
      "type": "event"
    },
    {
      "anonymous": false,
      "inputs": [
        {
          "indexed": true,
          "internalType": "uint256",
          "name": "tokenAmount",
          "type": "uint256"
        },
        {
          "indexed": true,
          "internalType": "uint256",
          "name": "wethAmount",
          "type": "uint256"
        }
      ],
      "name": "ActualSell",
      "type": "event"
    },
    {
      "anonymous": false,
      "inputs": [
        {
          "indexed": true,
          "internalType": "uint256",
          "name": "wethAmount",
          "type": "uint256"
        },
        {
          "indexed": true,
          "internalType": "uint256",
          "name": "tokenAmount",
          "type": "uint256"
        }
      ],
      "name": "ExpectedBuy",
      "type": "event"
    },
    {
      "anonymous": false,
      "inputs": [
        {
          "indexed": true,
          "internalType": "uint256",
          "name": "tokenAmount",
          "type": "uint256"
        },
        {
          "indexed": true,
          "internalType": "uint256",
          "name": "wethAmount",
          "type": "uint256"
        }
      ],
      "name": "ExpectedSell",
      "type": "event"
    },
    {
      "anonymous": false,
      "inputs": [
        {
          "indexed": true,
          "internalType": "address",
          "name": "user",
          "type": "address"
        },
        {
          "indexed": true,
          "internalType": "address",
          "name": "token",
          "type": "address"
        },
        {
          "indexed": true,
          "internalType": "address",
          "name": "dex",
          "type": "address"
        }
      ],
      "name": "TradeInfo",
      "type": "event"
    },
    {
      "inputs": [],
      "name": "darin",
      "outputs": [],
      "stateMutability": "nonpayable",
      "type": "function"
    },
    {
      "inputs": [
        {
          "internalType": "contract IERC20",
          "name": "_token",
          "type": "address"
        },
        {
          "internalType": "contract IPancakeRouter",
          "name": "_router",
          "type": "address"
        },
        {
          "internalType": "uint256",
          "name": "_amount",
          "type": "uint256"
        },
        {
          "internalType": "uint256",
          "name": "_times",
          "type": "uint256"
        }
      ],
      "name": "multiTrade",
      "outputs": [],
      "stateMutability": "payable",
      "type": "function"
    },
    {
      "inputs": [
        {
          "internalType": "contract IERC20",
          "name": "_token",
          "type": "address"
        },
        {
          "internalType": "contract IPancakeRouter",
          "name": "_router",
          "type": "address"
        },
        {
          "internalType": "uint256",
          "name": "_amount",
          "type": "uint256"
        }
      ],
      "name": "simpleTrade",
      "outputs": [],
      "stateMutability": "payable",
      "type": "function"
    },
    {
      "inputs": [
        {
          "internalType": "contract IERC20",
          "name": "_token",
          "type": "address"
        },
        {
          "internalType": "contract IPancakeRouter",
          "name": "_router",
          "type": "address"
        }
      ],
      "name": "trade",
      "outputs": [],
      "stateMutability": "payable",
      "type": "function"
    },
    {
      "stateMutability": "payable",
      "type": "receive"
    }
  ],
  "bytecode": "0x608060405234801561001057600080fd5b506114bc806100206000396000f3fe6080604052600436106100435760003560e01c80630df016641461004f5780633c54ca8c146100645780636bc260a614610077578063e5a451ff1461008a57600080fd5b3661004a57005b600080fd5b61006261005d3660046110db565b61009f565b005b61006261007236600461111c565b6104cf565b610062610085366004611155565b610f1d565b34801561009657600080fd5b50610062610f9e565b6040516001600160a01b03808416919085169033907f95c7924f2cf81349438f8c6a0fbd1e8c80daf66cde1b0b2a5eb6297d2fc2f86590600090a46000826001600160a01b031663ad5c46486040518163ffffffff1660e01b815260040160206040518083038186803b15801561011557600080fd5b505afa158015610129573d6000803e3d6000fd5b505050506040513d601f19601f8201168201806040525081019061014d919061119b565b60408051600280825260608201835292935060009290916020830190803683370190505090508181600081518110610187576101876111d5565b60200260200101906001600160a01b031690816001600160a01b03168152505084816001815181106101bb576101bb6111d5565b6001600160a01b03928316602091820292909201015260405163b6f9de9560e01b81529085169063b6f9de959085906101ff9060009086903090429060040161122f565b6000604051808303818588803b15801561021857600080fd5b505af115801561022c573d6000803e3d6000fd5b50600093506002925061023d915050565b604051908082528060200260200182016040528015610266578160200160208202803683370190505b509050858160008151811061027d5761027d6111d5565b60200260200101906001600160a01b031690816001600160a01b03168152505082816001815181106102b1576102b16111d5565b6001600160a01b03928316602091820292909201015260405163095ea7b360e01b8152868216600482015260001960248201529087169063095ea7b390604401602060405180830381600087803b15801561030b57600080fd5b505af115801561031f573d6000803e3d6000fd5b505050506040513d601f19601f820116820180604052508101906103439190611264565b506040516370a0823160e01b81523060048201526001600160a01b038087169163791ac947918916906370a082319060240160206040518083038186803b15801561038d57600080fd5b505afa1580156103a1573d6000803e3d6000fd5b505050506040513d601f19601f820116820180604052508101906103c59190611286565b60008430426040518663ffffffff1660e01b81526004016103ea95949392919061129f565b600060405180830381600087803b15801561040457600080fd5b505af1158015610418573d6000803e3d6000fd5b50506040516370a0823160e01b8152306004820152600092506001600160a01b03891691506370a082319060240160206040518083038186803b15801561045e57600080fd5b505afa158015610472573d6000803e3d6000fd5b505050506040513d601f19601f820116820180604052508101906104969190611286565b905047817f57c4a0c9b3c17812e8375d7ca5d9d39153195641941586eb490986ad3c082e8260405160405180910390a350505050505050565b6040516001600160a01b03808316919084169033907f95c7924f2cf81349438f8c6a0fbd1e8c80daf66cde1b0b2a5eb6297d2fc2f86590600090a461054160405180604001604052806015815260200174020b6b7bab73a1021a927903a37903a3930b2329d1605d1b8152503461103f565b6000816001600160a01b031663ad5c46486040518163ffffffff1660e01b815260040160206040518083038186803b15801561057c57600080fd5b505afa158015610590573d6000803e3d6000fd5b505050506040513d601f19601f820116820180604052508101906105b4919061119b565b6040516370a0823160e01b81523060048201529091506000906001600160a01b038516906370a082319060240160206040518083038186803b1580156105f957600080fd5b505afa15801561060d573d6000803e3d6000fd5b505050506040513d601f19601f820116820180604052508101906106319190611286565b90506106726040518060400160405280601f81526020017f546f6b656e2042616c616e6365204265666f72653a20257320746f6b656e73008152508261103f565b60408051600280825260608201835260009260208301908036833701905050905082816000815181106106a7576106a76111d5565b60200260200101906001600160a01b031690816001600160a01b03168152505084816001815181106106db576106db6111d5565b6001600160a01b03928316602091820292909201015260405163d06ca61f60e01b815260009186169063d06ca61f9061071a90349086906004016112db565b60006040518083038186803b15801561073257600080fd5b505afa158015610746573d6000803e3d6000fd5b505050506040513d6000823e601f3d908101601f1916820160405261076e91908101906112fc565b905080600181518110610783576107836111d5565b60200260200101518160008151811061079e5761079e6111d5565b60200260200101517f3982d2f52af054f3c8ccc4781c3b169707da6882084f59d17de5bf2fdceb0ba660405160405180910390a3610812604051806040016040528060048152602001630ae8aa8960e31b81525082600081518110610805576108056111d5565b602002602001015161103f565b61084760405180604001604052806006815260200165546f6b656e7360d01b81525082600181518110610805576108056111d5565b846001600160a01b031663b6f9de95348360018151811061086a5761086a6111d5565b60200260200101518530426040518663ffffffff1660e01b8152600401610894949392919061122f565b6000604051808303818588803b1580156108ad57600080fd5b505af11580156108c1573d6000803e3d6000fd5b50506040516370a0823160e01b8152306004820152600093508692506001600160a01b038a1691506370a082319060240160206040518083038186803b15801561090a57600080fd5b505afa15801561091e573d6000803e3d6000fd5b505050506040513d601f19601f820116820180604052508101906109429190611286565b61094c91906113d0565b905061098d6040518060400160405280601e81526020017f546f6b656e2042616c616e63652041667465723a20257320746f6b656e7300008152508261103f565b80826000815181106109a1576109a16111d5565b60200260200101517f9a54d982ac056ea5e7e20e984348b39399d1119c8bcb9af32d9de311d1e7722360405160405180910390a3610a08604051806040016040528060048152602001630ae8aa8960e31b81525083600081518110610805576108056111d5565b610a3060405180604001604052806006815260200165546f6b656e7360d01b8152508261103f565b6040805160028082526060820183526000926020830190803683370190505090508781600081518110610a6557610a656111d5565b60200260200101906001600160a01b031690816001600160a01b0316815250508581600181518110610a9957610a996111d5565b6001600160a01b03928316602091820292909201015260405163095ea7b360e01b81528882166004820152602481018490529089169063095ea7b390604401602060405180830381600087803b158015610af257600080fd5b505af1158015610b06573d6000803e3d6000fd5b505050506040513d601f19601f82011682018060405250810190610b2a9190611264565b5060405163d06ca61f60e01b81526000906001600160a01b0389169063d06ca61f90610b5c90869086906004016112db565b60006040518083038186803b158015610b7457600080fd5b505afa158015610b88573d6000803e3d6000fd5b505050506040513d6000823e601f3d908101601f19168201604052610bb091908101906112fc565b905080600181518110610bc557610bc56111d5565b602002602001015181600081518110610be057610be06111d5565b60200260200101517f3982d2f52af054f3c8ccc4781c3b169707da6882084f59d17de5bf2fdceb0ba660405160405180910390a3610c4e6040518060400160405280600b81526020016a53656c6c20546f6b656e7360a81b81525082600081518110610805576108056111d5565b610c86604051806040016040528060098152602001680a6cad8d840ae8aa8960bb1b81525082600181518110610805576108056111d5565b80600181518110610c9957610c996111d5565b602002602001015181600081518110610cb457610cb46111d5565b60200260200101517f426f29291a7b6ccdf8cd58b6c48544f978b699cb3a32719a24219d08c3c4673e60405160405180910390a3876001600160a01b031663791ac9478483600181518110610d0b57610d0b6111d5565b60200260200101518530426040518663ffffffff1660e01b8152600401610d3695949392919061129f565b600060405180830381600087803b158015610d5057600080fd5b505af1158015610d64573d6000803e3d6000fd5b50506040516370a0823160e01b8152306004820152600092506001600160a01b038c1691506370a082319060240160206040518083038186803b158015610daa57600080fd5b505afa158015610dbe573d6000803e3d6000fd5b505050506040513d601f19601f82011682018060405250810190610de29190611286565b905047817f57c4a0c9b3c17812e8375d7ca5d9d39153195641941586eb490986ad3c082e8260405160405180910390a3610e34604051806060016040528060238152602001611464602391398261103f565b610e666040518060400160405280601081526020016f02ba1a927903932b6b0b4b734b7339d160851b8152504761103f565b4715610f06576040516000908190339047908381818185875af1925050503d8060008114610eb0576040519150601f19603f3d011682016040523d82523d6000602084013e610eb5565b606091505b509150915081610f035760405162461bcd60e51b81526020600482015260146024820152732330b4b632b2103a379039b2b7321022ba3432b960611b60448201526064015b60405180910390fd5b50505b4715610f1157600080fd5b50505050505050505050565b610f2781836113e7565b341015610f6f5760405162461bcd60e51b81526020600482015260166024820152754e6f7420656e6f7567682045544820666f722074787360501b6044820152606401610efa565b8060005b81811015610f8e57610f8686868661009f565b600101610f73565b50610f97611084565b5050505050565b600080336001600160a01b0316476040515b60006040518083038185875af1925050503d8060008114610fed576040519150601f19603f3d011682016040523d82523d6000602084013e610ff2565b606091505b50915091508161103b5760405162461bcd60e51b81526020600482015260146024820152732330b4b632b2103a379039b2b7321022ba3432b960611b6044820152606401610efa565b5050565b61103b8282604051602401611055929190611406565b60408051601f198184030181529190526020810180516001600160e01b03166309710a9d60e41b1790526110a2565b47156110a057600080336001600160a01b031647604051610fb0565b565b80516a636f6e736f6c652e6c6f67602083016000808483855afa5050505050565b6001600160a01b03811681146110d857600080fd5b50565b6000806000606084860312156110f057600080fd5b83356110fb816110c3565b9250602084013561110b816110c3565b929592945050506040919091013590565b6000806040838503121561112f57600080fd5b823561113a816110c3565b9150602083013561114a816110c3565b809150509250929050565b6000806000806080858703121561116b57600080fd5b8435611176816110c3565b93506020850135611186816110c3565b93969395505050506040820135916060013590565b6000602082840312156111ad57600080fd5b81516111b8816110c3565b9392505050565b634e487b7160e01b600052604160045260246000fd5b634e487b7160e01b600052603260045260246000fd5b600081518084526020808501945080840160005b838110156112245781516001600160a01b0316875295820195908201906001016111ff565b509495945050505050565b84815260806020820152600061124860808301866111eb565b6001600160a01b03949094166040830152506060015292915050565b60006020828403121561127657600080fd5b815180151581146111b857600080fd5b60006020828403121561129857600080fd5b5051919050565b85815284602082015260a0604082015260006112be60a08301866111eb565b6001600160a01b0394909416606083015250608001529392505050565b8281526040602082015260006112f460408301846111eb565b949350505050565b6000602080838503121561130f57600080fd5b825167ffffffffffffffff8082111561132757600080fd5b818501915085601f83011261133b57600080fd5b81518181111561134d5761134d6111bf565b8060051b604051601f19603f83011681018181108582111715611372576113726111bf565b60405291825284820192508381018501918883111561139057600080fd5b938501935b828510156113ae57845184529385019392850192611395565b98975050505050505050565b634e487b7160e01b600052601160045260246000fd5b6000828210156113e2576113e26113ba565b500390565b6000816000190483118215151615611401576114016113ba565b500290565b604081526000835180604084015260005b818110156114345760208187018101516060868401015201611417565b81811115611446576000606083860101525b50602083019390935250601f91909101601f19160160600191905056fe546f6b656e2042616c616e63652041667465722053656c6c3a20257320746f6b656e73a2646970667358221220179e2664f4d8fc14efe72debcfd8f8424e7bf514cf5a368cd073db3374d7802f64736f6c63430008080033",
  "linkReferences": {},
  "deployedLinkReferences": {}
}